:100000000C9428010C9459010C9459010C94590139
:100010000C9459010C9459010C9459010C945901F8
:100020000C9459010C9459010C9459010C945901E8
:100030000C9459010C9459010C9459010C945901D8
:100040000C9459010C9459010C9459010C945901C8
:100050000C9459010C9459010C9459010C946705A6
:100060000C9459010C94DB050C94B1050C945901C6
:100070000C9459010C9459010C9459010C94590198
:100080000C9459010C9459010C9459010C94590188
:100090000C9459010C9459010C9459010C94590178
:1000A0000C9459010C9459010C9459010C94590168
:1000B0000C9459010C9459010C9459010C94590158
:1000C0000C9459010C9459010C9459010C94590148
:1000D0000C9459010C9459010C9459010C94590138
:1000E0000C9459010C94CD010C94DA010C94C501C7
:1000F0000C94D6010C94FC010C94C1010C940002E8
:100100000C94AA010C94D0010C94C9010C94AD027A
:100110000C9440030C94E8010C9411060C94990281
:100120000C94BB020C94E4010C94AF010C94E0011C
:100130000C94F2010C94EE010C948A020C94F601DA
:100140000C94F3020C945D0200000A0B02090C0DE2
:100150000E0807030401000000000000000000007A
:10016000000000000000000000000000000000008F
:10017000000000001211100000000000000000004C
:10018000000000000000000000000000000000006F
:100190002200250028002B002E003100340002012F
:1001A0000000050108010B010000210024002700C8
:1001B0002A002D0030003300010100000401070176
:1001C0000A01010210202008081020401020408061
:1001D000020102010804020101020408102040800B
:1001E0008040201008040201800402018040201099
:1001F00008040201080402010102040810204080E2
:1002000001020408102040800505050507050808BF
:100210000808020202020A0A080804040404010190
:1002200001010101010103030303030303030407A5
:1002300007070C0C0C0C0C0C0C0C0202020206063C
:100240000606060606060B0B0B0B0B0B0B0B11061B
:1002500011241FBECFEFD1E2DEBFCDBF00E00CBF47
:1002600018E0A0E0B2E0EEECF9E100E00BBF02C064
:1002700007900D92AA30B107D9F728E0AAE0B8E0BC
:1002800001C01D92A23BB207E1F711E0C8E2D1E044
:1002900000E006C021970109802FFE010E94DD0CBD
:1002A000C732D10780E00807A9F70E9490060C9496
:1002B000E50C0C94000090E0FC01EE53FE4F2491FD
:1002C000885F9D4FFC018491882399F090E0880F0E
:1002D000991FFC01E855FE4FA591B491FC01E2572E
:1002E000FE4F859194918FB7F894EC91E22BEC93AB
:1002F0008FBF0895282F30E0F901E85BFE4F9491FD
:10030000F901EE53FE4F4491285F3D4FF9012491CE
:10031000222309F435C0992311F191509231F8F458
:10032000E92FF0E08827E856FE4F8F4F0C94DD0C44
:10033000C901CD01AA01C101C501AF01D001D6019A
:10034000DA01E001E401E801EE01F201AF01F6019A
:10035000FC010002809180008F7780938000E22F63
:10036000F0E0EE0FFF1FE257FE4FA591B4918FB75B
:10037000F894EC91611148C040954E234C938FBF87
:100380000895809180008F7DE8CF80918000877FE5
:10039000E4CF84B58F7784BDE2CF84B58F7DFBCF6A
:1003A0008091B0008F778093B000D9CF8091B0005A
:1003B0008F7DF9CF809190008F7780939000CFCF81
:1003C000809190008F7DF9CF80919000877FF5CF4D
:1003D0008091A0008F778093A000C1CF8091A00072
:1003E0008F7DF9CF8091A000877FF5CF809120018C
:1003F0008F7780932001B3CF809120018F7DF9CF3B
:1004000080912001877FF5CF4E2BB8CF3FB7F8946E
:1004100080910F0890911008A0911108B0911208D6
:1004200026B5A89B05C02F3F19F00196A11DB11D4F
:100430003FBFBA2FA92F982F8827BC01CD01620F8B
:10044000711D811D911D42E0660F771F881F991F46
:100450004A95D1F708958F929F92AF92BF92CF9213
:10046000DF92EF92FF924B015C010E9406026B014A
:100470007C010E9406026C197D098E099F09683E65
:10048000734081059105A8F321E0821A9108A10823
:10049000B10888EEC80E83E0D81EE11CF11C81145F
:1004A0009104A104B10429F7FF90EF90DF90CF9061
:1004B000BF90AF909F908F900895AF92BF92CF92D0
:1004C000DF92EF92FF920F931F93CF93DF936C0114
:1004D0007B018B01040F151FEB015E01AE18BF08F5
:1004E000C017D10759F06991D601ED91FC910190A7
:1004F000F081E02DC6011995892B79F7C501DF91AF
:10050000CF911F910F91FF90EF90DF90CF90BF9010
:10051000AF900895FC01538D448D252F30E0842F3A
:1005200090E0821B930B541710F0CF96089501971B
:100530000895FC01918D828D981761F0A28DAE0F08
:10054000BF2FB11D5D968C91928D9F5F9F73928F8F
:1005500090E008958FEF9FEF0895FC01918D828DBB
:10056000981731F0828DE80FF11D858D90E0089588
:100570008FEF9FEF0895FC01918D228D892F90E0E0
:10058000805C9F4F821B91098F739927089583E1A7
:1005900098E00E94BB0221E0892B09F420E0822F21
:1005A0000895FC01A48DA80FB92FB11DA35ABF4F08
:1005B0002C91848D90E001968F739927848FA68962
:1005C000B7892C93A089B1898C91837080648C93B6
:1005D000938D848D981306C00288F389E02D808165
:1005E0008F7D80830895EF92FF920F931F93CF9397
:1005F000DF93EC0181E0888F9B8D8C8D98131AC05E
:10060000E889F989808185FF15C09FB7F894EE8944
:10061000FF896083E889F9898081837080648083A1
:100620009FBF81E090E0DF91CF911F910F91FF90EC
:10063000EF900895F62E0B8D10E00F5F1F4F0F7394
:100640001127E02E8C8D8E110CC00FB607FCFACF4F
:10065000E889F989808185FFF5CFCE010E94D1021A
:10066000F1CFEB8DEC0FFD2FF11DE35AFF4FF08220
:100670009FB7F8940B8FEA89FB8980818062CFCF86
:10068000CF93DF93EC01888D8823B9F0AA89BB89C9
:10069000E889F9898C9185FD03C0808186FD0DC0B4
:1006A0000FB607FCF7CF8C9185FFF2CF808185FFD5
:1006B000EDCFCE010E94D102E9CFDF91CF91089515
:1006C00080E090E0892B29F00E94C70281110E94EE
:1006D000000080E090E0892B49F080E090E0892BD9
:1006E00029F00E94000081110E94000080E090E04B
:1006F000892B49F080E090E0892B29F00E940000CE
:1007000081110E94000080E090E0892B49F080E098
:1007100090E0892B29F00E94000081110C940000C8
:1007200008950CB405FC0DC09EBD00000DB407FE7D
:10073000FDCF9EB58EBD00000DB407FEFDCF8EB57A
:1007400008958EBD00000DB407FEFDCF8EB59EBD91
:1007500000000DB407FEFDCF9EB50895FC01019089
:100760000020E9F73197AF01481B590BBC0183E129
:1007700098E00C945D0282E192E00C94AE038F92BB
:100780009F92AF92BF920F931F93CF93DF93CDB7FA
:10079000DEB7A1970FB6F894DEBF0FBECDBF19A28A
:1007A000423008F44AE08E010F5D1F4F842E912CD9
:1007B000B12CA12CA50194010E94BB0CE62FB9011C
:1007C000CA01EA30F4F4E05DD801EE938D01232BE9
:1007D000242B252B79F790E080E0109719F0CD01BC
:1007E0000E94AE03A1960FB6F894DEBF0FBECDBF38
:1007F000DF91CF911F910F91BF90AF909F908F90FD
:100800000895E95CE1CFCF93DF930E94BF03EC0131
:100810000E94BB038C0F9D1FDF91CF910895CF9352
:10082000DF93462F682F70E090E080E00E94BF03C6
:10083000EC010E94BB038C0F9D1FDF91CF910895A7
:10084000CF93DF930E94AE03EC010E94BB038C0F99
:100850009D1FDF91CF9108950C94AE03CF93FC01BF
:10086000908184EC982728E030E08DE197FF03C069
:10087000990F982701C0990F21503109B9F781814B
:10088000892728E030E09DE187FF03C0880F892792
:1008900001C0880F21503109B9F7C82FC09585E1F3
:1008A00092E00E942C0460E170E08C2F0E940F0403
:1008B0008C2FCF9108958F929F92AF92BF92CF923B
:1008C000DF92EF92FF920F931F93CF93DF9300D0AD
:1008D00000D01F921F92CDB7DEB77C018C011F7331
:1008E0001F73106481E292E00E942C0460E170E0CA
:1008F000812F0E940F041F8381E292E00E942C044A
:1009000060E170E0802F0E940F040887CE010796F7
:100910000E942E04B82E8FE292E00E942004B701BC
:1009200090E080E040E150E00E9403046B2D70E015
:1009300090E080E040E150E00E94030440E150E09C
:1009400061E070E080E090E00E94030440E150E04C
:1009500060E070E0CB010E94030440E150E06FEFE3
:1009600070E080E090E00E94030484E192E00E9445
:10097000200488E492E00E942C04EB2CF02EC12E7F
:10098000DD24DA9440E150E0B701C6010E9403047F
:100990001D8280E48E83CE0105960E942E0487E599
:1009A0008CBD1DBC60E08091B1080E947A01C60137
:1009B0000E949103C7010E94910361E08091B108F8
:1009C0000E947A0160E08091B1080E947A0190E073
:1009D00080E00E9491036C01F12CE12C90E080E01A
:1009E0000E9491034C01B12CA12C85E692E00E945B
:1009F0002C0442E050E0C701B6010E94030485E7E1
:100A000092E00E942C0442E050E0C501B4010E9433
:100A100003047601DD24CC24C80CD91CEA1CFB1C81
:100A200061E08091B1080E947A01C982DA82EB828A
:100A3000FC828E010F5F1F4F5E0183E0A81AB10890
:100A400087E0882E912CF801638170E0082C02C0A9
:100A5000759567950A94E2F761707727072E000C69
:100A6000880B990B4AE00E94BF03F1E08F1A9108AE
:100A700050F70E94BB0301501109A016B10601F7FF
:100A80000E94BB03C701B60128960FB6F894DEBFDB
:100A90000FBECDBFDF91CF911F910F91FF90EF90CF
:100AA000DF90CF90BF90AF909F908F900895CF939D
:100AB000DF93BC0190E080E04AE00E94BF03EC01BC
:100AC0000E94BB038C0F9D1FDF91CF9108951F9251
:100AD0000F920FB60F9211242F933F938F939F93F2
:100AE000AF93BF9380910B0890910C08A0910D08D3
:100AF000B0910E0830910A0823E0230F2D3758F5E6
:100B00000196A11DB11D20930A0880930B089093B4
:100B10000C08A0930D08B0930E0880910F089091D7
:100B20001008A0911108B09112080196A11DB11DE5
:100B300080930F0890931008A0931108B0931208A7
:100B4000BF91AF919F918F913F912F910F900FBEC9
:100B50000F901F90189526E8230F0296A11DB11D36
:100B6000D2CF1F920F920FB60F9211240BB60F9295
:100B70002F933F934F935F936F937F938F939F93A5
:100B8000AF93BF93EF93FF9383E198E00E94D1026C
:100B9000FF91EF91BF91AF919F918F917F916F9155
:100BA0005F914F913F912F910F900BBE0F900FBE11
:100BB0000F901F9018951F920F920FB60F9211244D
:100BC0000BB60F922F938F939F93EF93FF93E09128
:100BD0002308F09124088081E0912908F0912A08E7
:100BE00082FD1DC0908180912C088F5F8F732091B2
:100BF0002D08821741F0E0912C08F0E0ED5EF74FF0
:100C0000958F80932C08FF91EF919F918F912F9159
:100C10000F900BBE0F900FBE0F901F901895808104
:100C2000F2CFCF93109216081092150888EE93E039
:100C3000A0E0B0E08093170890931808A0931908DB
:100C4000B0931A0884E092E09093140880931308FC
:100C500085EC90E09093200880931F0884EC90E04E
:100C6000909322088093210880EC90E090932408D0
:100C70008093230881EC90E09093260880932508C8
:100C800082EC90E0909328088093270886EC90E00F
:100C900090932A088093290810922C0810922D080E
:100CA00010922E0810922F088AE08093B1080E94BB
:100CB0005B0161E08091B1080E947A01CFB7F8949E
:100CC0008091B008811124C0EDE3F2E08491E7EF58
:100CD000F1E09491E82FF0E0EE0FFF1FE855FE4F92
:100CE000A591B491EC91E92321F461E085E30E94A0
:100CF0007A0185E30E945B018CB580618CBD8CB567
:100D000080648CBD84E30E945B0183E30E945B01ED
:100D10008091B0088F5F8093B008CFBFCF910895C6
:100D2000789484B5826084BD84B5816084BD85B5C6
:100D3000826085BD85B5816085BD80916E008160D2
:100D400080936E0010928100809181008260809378
:100D5000810080918100816080938100809180007A
:100D60008160809380008091B10084608093B100A5
:100D70008091B00081608093B0008091910082608A
:100D80008093910080919100816080939100809187
:100D900090008160809390008091A1008260809398
:100DA000A1008091A10081608093A1008091A000AA
:100DB00081608093A0008091210182608093210155
:100DC00080912101816080932101809120018160C7
:100DD0008093200180917A00846080937A008091D2
:100DE0007A00826080937A0080917A00816080939B
:100DF0007A0080917A00806880937A001092C10016
:100E0000E0912308F091240882E08083E0911F089C
:100E1000F09120081082E0912108F091220880E1F1
:100E2000808310922B08E0912708F091280886E033
:100E30008083E0912508F09126088081806180837D
:100E4000E0912508F0912608808188608083E091F8
:100E50002508F0912608808180688083E09125082C
:100E6000F091260880818F7D808368EE73E080E0BA
:100E700090E00E942B0285E892E00E94200460ED41
:100E800077E080E090E00E942B0281E090E00E94F9
:100E90005B04C82F96FB112710F997FB002700F978
:100EA000D92FDF7385E992E00E94200484EB92E061
:100EB0000E9420048DEC92E00E942C04602F70E0D0
:100EC00090E080E04AE050E00E9403048BED92E065
:100ED0000E942C04612F70E090E080E04AE050E036
:100EE0000E9403048FEE92E00E942C048C2F8170EC
:100EF00090E00E94570581E093E00E942C04C1FB22
:100F0000882780F990E00E9457058FE093E00E94C7
:100F10002C04C2FB882780F990E00E94570583E2E9
:100F200093E00E942C04C3FB882780F990E00E9484
:100F3000570585E393E00E942C04C4FB882780F9C1
:100F400090E00E94570589E493E00E942C04C5FBC1
:100F5000882780F990E00E9457058DE593E00E9474
:100F60002C04C6FB882780F990E00E9457058DE687
:100F700093E00E942C04C7FB882780F990E00E9430
:100F8000570589E793E00E942C048D2F817090E033
:100F90000E94570587E893E00E942C04D1FB882724
:100FA00080F990E00E94570583EA93E00E942C04A8
:100FB000D2FB882780F990E00E94570589EB93E0E7
:100FC0000E94200483E090E00E945B04C82F96FBFF
:100FD000112710F997FBDD27D0F98BEB93E00E94E6
:100FE00020048DEC92E00E942C046D2F70E090E0C4
:100FF00080E04AE050E00E9403048BED92E00E9402
:101000002C04612F70E090E080E04AE050E00E9404
:10101000030483ED93E00E942C048C2F817090E0F8
:101020000E94570580EE93E00E942C04C2FB8827A3
:1010300080F990E00E9457058DEE93E00E942C0409
:10104000C3FB882780F990E00E9457058BEF93E05F
:101050000E942C04C6FB882780F990E00E94570567
:1010600089EB93E00E94200485EF9FE30E945B04DC
:10107000C82F96FB112710F997FB002700F9D92FED
:10108000DF7388E094E00E9420048DEC92E00E94DF
:101090002C04602F70E090E080E04AE050E00E9475
:1010A00003048BED92E00E942C04612F70E090E02D
:1010B00080E04AE050E00E9403048FE194E00E9447
:1010C0002C048C2F817090E00E9457058DE294E0F3
:1010D0000E942C04C1FB882780F990E00E945705EC
:1010E00083EA93E00E942C04C2FB882780F990E0F9
:1010F0000E94570581E494E00E942C04C3FB8827DA
:1011000080F990E00E9457058CE494E00E942C0442
:10111000C4FB882780F990E00E94570587E594E09A
:101120000E942C04C5FB882780F990E00E94570597
:101130008AE694E00E942C04C6FB882780F990E0A0
:101140000E9457058BE794E00E942C04C7FB882778
:1011500080F990E00E9457058CE894E00E942C04EE
:101160008D2F817090E00E9457058BE994E00E94DA
:101170002C04D1FB882780F990E00E9457058EEA65
:1011800094E00E942C04D2FB882780F990E00E9412
:1011900057058FEB94E00E942C049D2F9695969511
:1011A00096959370892F90E00E94570589EB93E004
:1011B0000E94200489EF9FE30E945B04C82F96FBE6
:1011C000112710F997FBDD27D0F98DEC94E00E94F0
:1011D00020048DEC92E00E942C046D2F70E090E0D2
:1011E00080E04AE050E00E9403048BED92E00E9410
:1011F0002C04612F70E090E080E04AE050E00E9413
:10120000030484EE94E00E942C046AE070E08C2FCA
:101210000E940F0489EB93E00E9420048AEF9FE371
:101220000E945B04C82F96FB112710F997FB00273B
:1012300000F9D92FDF738EEE94E00E9420048DEC2C
:1012400092E00E942C04602F70E090E080E04AE081
:1012500050E00E9403048BED92E00E942C04612F69
:1012600070E090E080E04AE050E00E9403048AE0F1
:1012700095E00E942C04CE010E94570589EB93E073
:101280000E9420048BEF9FE30E945B04C82F96FB13
:10129000112710F997FB002700F9D92FDF7389E197
:1012A00095E00E9420048DEC92E00E942C04602FB7
:1012B00070E090E080E04AE050E00E9403048BED93
:1012C00092E00E942C04612F70E090E080E04AE000
:1012D00050E00E94030485E395E00E942C04CE01B7
:1012E0000E94570589EB93E00E9420048CEF9FE356
:1012F0000E945B04C82F96FB112710F997FB00276B
:1013000000F9D92FDF7384E495E00E9420048DEC6E
:1013100092E00E942C04602F70E090E080E04AE0B0
:1013200050E00E9403048BED92E00E942C04612F98
:1013300070E090E080E04AE050E00E94030480E624
:1013400095E00E942C04CE010E94570589EB93E0A2
:101350000E9420048DEF9FE30E945B04C82F96FB40
:10136000112710F997FB002700F9D92FDF738FE6BB
:1013700095E00E9420048DEC92E00E942C04602FE6
:1013800070E090E080E04AE050E00E9403048BEDC2
:1013900092E00E942C04612F70E090E080E04AE02F
:1013A00050E00E94030487E895E00E942C04CE01DF
:1013B0000E94570589EB93E00E9420048EEF9FE383
:1013C0000E945B04C82F96FB112710F997FB00279A
:1013D00000F9D92FDF7382E995E00E9420048DEC9B
:1013E00092E00E942C04602F70E090E080E04AE0E0
:1013F00050E00E9403048BED92E00E942C04612FC8
:1014000070E090E080E04AE050E00E9403048FEA40
:1014100095E00E942C04CE010E94570589EB93E0D1
:101420000E9420048FEF9FE30E945B04C82F96FB6D
:10143000112710F997FB002700F9D92FDF7382E9F4
:1014400095E00E9420048DEC92E00E942C04602F15
:1014500070E090E080E04AE050E00E9403048BEDF1
:1014600092E00E942C04612F70E090E080E04AE05E
:1014700050E00E9403048EEB95E00E942C04CE0104
:101480000E94570589EB93E00E94200481ED90E0D3
:101490000E945B04C82F96FB112710F997FBDD27EC
:1014A000D0F98DEC95E00E9420048DEC92E00E9432
:1014B0002C046D2F70E090E080E04AE050E00E9444
:1014C00003048BED92E00E942C04612F70E090E009
:1014D00080E04AE050E00E9403048EEE95E00E9416
:1014E0002C046AE070E08C2F8F770E940F0489EB48
:1014F00093E00E94200485E190E00E945B04C82FE5
:1015000096FB112710F997FBDD27D0F98DEF95E0B9
:101510000E9420048DEC92E00E942C046D2F70E05C
:1015200090E080E04AE050E00E9403048BED92E0FE
:101530000E942C04612F70E090E080E04AE050E0CF
:101540000E94030489E196E00E942C046AE070E0A6
:101550008C2F81700E940F0487E296E00E942C0479
:101560006AE070E0C1FB882780F90E940F048CE3D9
:1015700096E00E942C048C2F869586956AE070E098
:101580008F700E940F048EE496E00E942C046AE0A3
:1015900070E0C6FB882780F90E940F0489EB93E076
:1015A0000E94200486E190E00E945B04C82F96FB15
:1015B000112710F997FBDD27D0F98CE596E00E9402
:1015C00020048DEC92E00E942C046D2F70E090E0DE
:1015D00080E04AE050E00E9403048BED92E00E941C
:1015E0002C04612F70E090E080E04AE050E00E941F
:1015F000030486E796E00E942C046AE070E08C2FDA
:101600000E940F0489EB93E00E94200487E190E0A0
:101610000E945B04C82F96FB112710F997FBDD276A
:10162000D0F982E896E00E9420048DEC92E00E94BE
:101630002C046D2F70E090E080E04AE050E00E94C2
:1016400003048BED92E00E942C04612F70E090E087
:1016500080E04AE050E00E9403048CE996E00E949A
:101660002C046AE070E08C2F8F730E940F0488EACC
:1016700096E00E942C046AE070E0C6FB882780F99F
:101680000E940F0486EB96E00E942C04C7FB88277B
:1016900080F96AE070E00E940F0489EB93E00E94F9
:1016A000200488E190E00E945B04C82F96FB11277C
:1016B00010F997FBDD27D0F984EC96E00E94200416
:1016C0008DEC92E00E942C046D2F70E090E080E0A1
:1016D0004AE050E00E9403048BED92E00E942C044B
:1016E000612F70E090E080E04AE050E00E94030447
:1016F00082EE96E00E942C046AE070E08C2F8770E6
:101700000E940F048EEE96E00E942C048C2F86958A
:10171000869586956AE070E087700E940F048AEFD4
:1017200096E00E942C046AE070E0C6FB882780F9EE
:101730000E940F0489EB93E00E94200489E190E06D
:101740000E945B04C82F96FB112710F997FBDD2739
:10175000D0F984EC96E00E9420048DEC92E00E9487
:101760002C046D2F70E090E080E04AE050E00E9491
:1017700003048BED92E00E942C04612F70E090E056
:1017800080E04AE050E00E94030488E097E00E9475
:101790002C046AE070E08C2F81700E940F0485E1B8
:1017A00097E00E942C046AE070E0C1FB882780F972
:1017B0000E940F0484E297E00E942C046AE070E02B
:1017C000C2FB882780F90E940F048EE297E00E94F6
:1017D0002C046AE070E0C3FB882780F90E940F04A4
:1017E0008CE397E00E942C046AE070E0C4FB882739
:1017F00080F90E940F048AE497E00E942C046AE0BA
:1018000070E0C5FB882780F90E940F0488E597E007
:101810000E942C046AE070E0C6FB882780F90E94D1
:101820000F0489E697E00E942C04C7FB882780F903
:101830006AE070E00E940F0489EB93E00E942004AC
:101840008AE190E00E945B04C82F96FB112710F9F3
:1018500097FBDD27D0F985E797E00E9420048DEC07
:1018600092E00E942C046D2F70E090E080E04AE04E
:1018700050E00E9403048BED92E00E942C04612F43
:1018800070E090E080E04AE050E00E94030483E9C9
:1018900097E00E942C046AE070E08C2F87700E9411
:1018A0000F048FE997E00E942C048C2F8695869573
:1018B00086956AE070E083700E940F0489EA97E0E1
:1018C0000E942C046AE070E08C2F829586958770C8
:1018D0000E940F0489EB93E00E9420048BE190E0CA
:1018E0000E945B04C82F96FB112710F997FBDD2798
:1018F000D0F986EB97E00E9420048DEC92E00E94E4
:101900002C046D2F70E090E080E04AE050E00E94EF
:1019100003048BED92E00E942C04612F70E090E0B4
:1019200080E04AE050E00E9403048EEC97E00E94C1
:101930002C046AE070E08C2F8F770E940F048EEDEC
:1019400097E00E942C04C7FB882780F96AE070E0CA
:101950000E940F0489EB93E00E9420048BEE97E035
:101960000E94200460E177E280E090E00E942B0278
:101970000E946003FDCFA1E21A2EAA1BBB1BFD0132
:101980000DC0AA1FBB1FEE1FFF1FA217B307E4075E
:10199000F50720F0A21BB30BE40BF50B661F771FB6
:1019A000881F991F1A9469F7609570958095909596
:1019B0009B01AC01BD01CF010895EE0FFF1F881FF1
:0E19C0008BBF0790F691E02D1994F894FFCF9D
:1019CE0000000000F3025D028A024003BB0299028E
:1019DE00AD020D0A004352432056616C75653A20E4
:1019EE0000627974652073616D706C653A200076C3
:1019FE00616C7565206F6620636F6D6D616E64201E
:101A0E006672616D653A200076616C75652066724E
:101A1E006F6D20756E696F6E2061667465722063DE
:101A2E0072633A2000726563656976656444617419
:101A3E0061313A200072656365697665644461744C
:101A4E0061323A2000536574757020636F6D706C4F
:101A5E0065746521003D3D3D3D3D3D3D3D2041537D
:101A6E0035583437204465627567203D3D3D3D3D18
:101A7E003D3D3D002D2D2D2D2D2D2D204552524617
:101A8E004C2052656769737465723A20007C202081
:101A9E00205761726E696E673A20007C20202052BA
:101AAE00656164696E67204572726F723A20007CC0
:101ABE002020204147435F5741524E494E473A201E
:101ACE00007C2020204D414748414C463A20007C66
:101ADE00202020503252414D5F5741524E494E47C1
:101AEE003A20007C202020503252414D5F45525208
:101AFE004F523A20007C2020204652414D494E47FD
:101B0E005F4552524F523A20007C202020434F4DC9
:101B1E004D414E445F4552524F523A20007C202098
:101B2E00204352435F4552524F523A20007C2020B0
:101B3E002057445453543A20007C20202042524BCC
:101B4E0048414C4C3A20007C2020204F46465F43B3
:101B5E004F4D505F4E4F545F46494E495348454492
:101B6E003A20007C202020434F524449435F4F5679
:101B7E004552464C4F573A20007C002D2D2D2D2DD1
:101B8E002D2D2050524F4720526567697374657230
:101B9E003A20007C20202050524F47454E3A2000DC
:101BAE007C2020204F54505245463A20007C202065
:101BBE002050524F474F54503A20007C2020205046
:101BCE00524F5645523A20002D2D2D2D2D2D2D20C4
:101BDE004449412052656769737465723A20007CEE
:101BEE002020205644444D4F44453A20007C20206E
:101BFE00204C4F4F505346494E49534845443A2086
:101C0E00007C202020434F4D4C3A20007C20202089
:101C1E00434F4D483A20007C2020204D41474841FB
:101C2E004C465F464C41473A20007C202020434FD3
:101C3E00534F46465F46494E3A20007C20202053A3
:101C4E00494E4F46465F46494E3A20007C202020A2
:101C5E0046494E49534845443A20007C20202041B5
:101C6E0047435F46494E49534845443A20007C203D
:101C7E002020465553415F4552524F523A20007C28
:101C8E002020205350495F434E543A20002D2D2DD5
:101C9E002D2D2D2D204147432052656769737465A4
:101CAE00723A20007C2020204147433A20002D2DFF
:101CBE002D2D2D2D2D2053494E204441544120527F
:101CCE00656769737465723A20007C202020534941
:101CDE004E20444154413A20002D2D2D2D2D2D2DD9
:101CEE0020434F5320444154412052656769737419
:101CFE0065723A20007C202020434F5320444154EB
:101D0E00413A20002D2D2D2D2D2D2D2056454C4F99
:101D1E00434954592052656769737465723A2000BD
:101D2E007C20202056454C4F434954593A20007C84
:101D3E002D2D2D2D2D2D2D204D41472052656769BE
:101D4E00737465723A20007C202020434D41473A3F
:101D5E0020007C2D2D2D2D2D2D2D20414E474C4517
:101D6E00554E432052656769737465723A20007C44
:101D7E00202020414E474C45554E433A20007C20B2
:101D8E002020414E474C45434F4D3A20007C2D2D8F
:101D9E002D2D2D2D2D2045434320434845434B5398
:101DAE00554D2052656769737465723A20007C2028
:101DBE002020434845434B53554D3A20007C2D2D52
:101DCE002D2D2D2D2D2044495341424C4520526539
:101DDE006769737465723A20007C2020205556572F
:101DEE005F4F46463A20007C20202046494C544501
:101DFE00525F44495341424C453A20007C202020FA
:101E0E0042524B48414C4C5F5345543A20007C2083
:101E1E0020204142495F4F46463A20007C2D2D2D11
:101E2E002D2D2D2D205A504F534D2052656769731D
:101E3E007465723A20007C2020205A504F534D3A40
:101E4E0020007C2D2D2D2D2D2D2D205A504F534CF5
:101E5E002052656769737465723A20007C202020D9
:101E6E005A504F534C3A20007C2020204449413197
:101E7E005F454E3A20007C202020444941325F4588
:101E8E004E3A20007C2D2D2D2D2D2D2D20534554D9
:101E9E0054494E4753322052656769737465723ADE
:101EAE0020007C2020204B5F4D41583A20007C20A2
:101EBE0020204B5F4D494E3A20007C202020444983
:101ECE0041335F454E3A20007C202020495749443B
:101EDE0054483A20007C2020204E4F49534553450C
:101EEE00543A20007C2020204449523A20007C2085
:101EFE0020205556575F4142493A20007C20202031
:101F0E00444145434449533A20007C20202041421D
:101F1E00495F4445433A20007C20202044415441EF
:101F2E0053454C4543543A20007C20202050574DB9
:101F3E004F4E3A20007C2D2D2D2D2D2D2D2053452D
:101F4E005454494E47533320526567697374657212
:101F5E003A20007C20202055565750503A20007CC5
:101F6E002020204859533A20007C2020204142490D
:101F7E005245533A20007C2D2D2D2D2D2D2D2045F3
:101F8E0043432052656769737465723A20007C2062
:101F9E0020204543435F434853554D3A20007C2053
:101FAE0020204543435F454E3A20003D3D3D3D3D9B
:101FBE003D3D3D3D3D3D3D3D3D3D3D3D3D3D3D3D43
:0A1FCE003D3D3D3D3D3D3D3D3D00E4
:00000001FF
